{
  "contractName": "Toy",
  "abi": [
    {
      "inputs": [],
      "payable": false,
      "stateMutability": "nonpayable",
      "type": "constructor"
    },
    {
      "constant": true,
      "inputs": [
        {
          "internalType": "uint256",
          "name": "",
          "type": "uint256"
        }
      ],
      "name": "adoptedTime",
      "outputs": [
        {
          "internalType": "uint256",
          "name": "",
          "type": "uint256"
        }
      ],
      "payable": false,
      "stateMutability": "view",
      "type": "function"
    },
    {
      "constant": true,
      "inputs": [
        {
          "internalType": "uint256",
          "name": "",
          "type": "uint256"
        }
      ],
      "name": "pets",
      "outputs": [
        {
          "internalType": "uint256",
          "name": "id",
          "type": "uint256"
        },
        {
          "internalType": "string",
          "name": "name",
          "type": "string"
        },
        {
          "internalType": "string",
          "name": "picture",
          "type": "string"
        },
        {
          "internalType": "uint256",
          "name": "age",
          "type": "uint256"
        },
        {
          "internalType": "string",
          "name": "breed",
          "type": "string"
        },
        {
          "internalType": "string",
          "name": "location",
          "type": "string"
        },
        {
          "internalType": "address payable",
          "name": "adopter",
          "type": "address"
        },
        {
          "internalType": "bool",
          "name": "isForSale",
          "type": "bool"
        },
        {
          "internalType": "uint256",
          "name": "price",
          "type": "uint256"
        },
        {
          "internalType": "bool",
          "name": "isPurchased",
          "type": "bool"
        },
        {
          "internalType": "bool",
          "name": "isAdopted",
          "type": "bool"
        }
      ],
      "payable": false,
      "stateMutability": "view",
      "type": "function"
    },
    {
      "constant": true,
      "inputs": [],
      "name": "petsNum",
      "outputs": [
        {
          "internalType": "uint256",
          "name": "",
          "type": "uint256"
        }
      ],
      "payable": false,
      "stateMutability": "view",
      "type": "function"
    },
    {
      "constant": false,
      "inputs": [
        {
          "internalType": "uint256",
          "name": "petId",
          "type": "uint256"
        }
      ],
      "name": "adopt",
      "outputs": [
        {
          "internalType": "uint256",
          "name": "",
          "type": "uint256"
        }
      ],
      "payable": false,
      "stateMutability": "nonpayable",
      "type": "function"
    },
    {
      "constant": false,
      "inputs": [
        {
          "internalType": "uint256",
          "name": "petId",
          "type": "uint256"
        }
      ],
      "name": "buy",
      "outputs": [],
      "payable": true,
      "stateMutability": "payable",
      "type": "function"
    },
    {
      "constant": false,
      "inputs": [
        {
          "internalType": "uint256",
          "name": "petId",
          "type": "uint256"
        }
      ],
      "name": "vote",
      "outputs": [
        {
          "internalType": "uint256",
          "name": "",
          "type": "uint256"
        }
      ],
      "payable": false,
      "stateMutability": "nonpayable",
      "type": "function"
    },
    {
      "constant": true,
      "inputs": [],
      "name": "getVotedPets",
      "outputs": [
        {
          "internalType": "uint256[100]",
          "name": "",
          "type": "uint256[100]"
        }
      ],
      "payable": false,
      "stateMutability": "view",
      "type": "function"
    },
    {
      "constant": true,
      "inputs": [
        {
          "internalType": "uint256",
          "name": "petId",
          "type": "uint256"
        }
      ],
      "name": "getliked",
      "outputs": [
        {
          "internalType": "uint256",
          "name": "",
          "type": "uint256"
        }
      ],
      "payable": false,
      "stateMutability": "view",
      "type": "function"
    },
    {
      "constant": false,
      "inputs": [
        {
          "internalType": "string",
          "name": "name",
          "type": "string"
        },
        {
          "internalType": "string",
          "name": "picture",
          "type": "string"
        },
        {
          "internalType": "uint256",
          "name": "age",
          "type": "uint256"
        },
        {
          "internalType": "string",
          "name": "breed",
          "type": "string"
        },
        {
          "internalType": "string",
          "name": "location",
          "type": "string"
        },
        {
          "internalType": "bool",
          "name": "isForSale",
          "type": "bool"
        },
        {
          "internalType": "uint256",
          "name": "price",
          "type": "uint256"
        }
      ],
      "name": "add",
      "outputs": [
        {
          "internalType": "uint256",
          "name": "",
          "type": "uint256"
        }
      ],
      "payable": false,
      "stateMutability": "nonpayable",
      "type": "function"
    },
    {
      "constant": true,
      "inputs": [],
      "name": "getPetsNum",
      "outputs": [
        {
          "internalType": "uint256",
          "name": "",
          "type": "uint256"
        }
      ],
      "payable": false,
      "stateMutability": "view",
      "type": "function"
    },
    {
      "constant": true,
      "inputs": [
        {
          "internalType": "uint256",
          "name": "petId",
          "type": "uint256"
        }
      ],
      "name": "getPetDetails",
      "outputs": [
        {
          "internalType": "uint256",
          "name": "",
          "type": "uint256"
        },
        {
          "internalType": "string",
          "name": "",
          "type": "string"
        },
        {
          "internalType": "string",
          "name": "",
          "type": "string"
        },
        {
          "internalType": "uint256",
          "name": "",
          "type": "uint256"
        },
        {
          "internalType": "string",
          "name": "",
          "type": "string"
        },
        {
          "internalType": "string",
          "name": "",
          "type": "string"
        },
        {
          "internalType": "address payable",
          "name": "",
          "type": "address"
        },
        {
          "internalType": "bool",
          "name": "",
          "type": "bool"
        },
        {
          "internalType": "uint256",
          "name": "",
          "type": "uint256"
        },
        {
          "internalType": "bool",
          "name": "",
          "type": "bool"
        },
        {
          "internalType": "bool",
          "name": "",
          "type": "bool"
        }
      ],
      "payable": false,
      "stateMutability": "view",
      "type": "function"
    },
    {
      "constant": true,
      "inputs": [
        {
          "internalType": "uint256",
          "name": "petId",
          "type": "uint256"
        }
      ],
      "name": "isForSale",
      "outputs": [
        {
          "internalType": "uint256",
          "name": "",
          "type": "uint256"
        },
        {
          "internalType": "bool",
          "name": "",
          "type": "bool"
        }
      ],
      "payable": false,
      "stateMutability": "view",
      "type": "function"
    },
    {
      "constant": true,
      "inputs": [],
      "name": "getMyAddr",
      "outputs": [
        {
          "internalType": "string",
          "name": "",
          "type": "string"
        }
      ],
      "payable": false,
      "stateMutability": "view",
      "type": "function"
    }
  ],
  "bytecode": "0x60806040526040518060600160405280602a815260200162001c7f602a9139600390805190602001906200003592919062000052565b503480156200004357600080fd5b50600060028190555062000101565b828054600181600116156101000203166002900490600052602060002090601f016020900481019282601f106200009557805160ff1916838001178555620000c6565b82800160010185558215620000c6579182015b82811115620000c5578251825591602001919060010190620000a8565b5b509050620000d59190620000d9565b5090565b620000fe91905b80821115620000fa576000816000905550600101620000e0565b5090565b90565b611b6e80620001116000396000f3fe6080604052600436106100c25760003560e01c80638588b2c51161007f578063cfb869bf11610059578063cfb869bf14610604578063d89fd4b414610865578063d96a094a14610ac6578063db1bb52b14610af4576100c2565b80638588b2c5146104d6578063ac3098d214610525578063b2a02b1914610574576100c2565b80630121b93f146100c7578063185feb561461011657806327b151be146103d75780633ec0725d146104265780638041952f146104515780638546d0021461047c575b600080fd5b3480156100d357600080fd5b50610100600480360360208110156100ea57600080fd5b8101908080359060200190929190505050610b47565b6040518082815260200191505060405180910390f35b34801561012257600080fd5b506103c1600480360360e081101561013957600080fd5b810190808035906020019064010000000081111561015657600080fd5b82018360208201111561016857600080fd5b8035906020019184600183028401116401000000008311171561018a57600080fd5b91908080601f016020809104026020016040519081016040528093929190818152602001838380828437600081840152601f19601f820116905080830192505050505050509192919290803590602001906401000000008111156101ed57600080fd5b8201836020820111156101ff57600080fd5b8035906020019184600183028401116401000000008311171561022157600080fd5b91908080601f016020809104026020016040519081016040528093929190818152602001838380828437600081840152601f19601f820116905080830192505050505050509192919290803590602001909291908035906020019064010000000081111561028e57600080fd5b8201836020820111156102a057600080fd5b803590602001918460018302840111640100000000831117156102c257600080fd5b91908080601f016020809104026020016040519081016040528093929190818152602001838380828437600081840152601f19601f8201169050808301925050505050505091929192908035906020019064010000000081111561032557600080fd5b82018360208201111561033757600080fd5b8035906020019184600183028401116401000000008311171561035957600080fd5b91908080601f016020809104026020016040519081016040528093929190818152602001838380828437600081840152601f19601f82011690508083019250505050505050919291929080351515906020019092919080359060200190929190505050610b4e565b6040518082815260200191505060405180910390f35b3480156103e357600080fd5b50610410600480360360208110156103fa57600080fd5b8101908080359060200190929190505050610efd565b6040518082815260200191505060405180910390f35b34801561043257600080fd5b5061043b610f04565b6040518082815260200191505060405180910390f35b34801561045d57600080fd5b50610466610f0e565b6040518082815260200191505060405180910390f35b34801561048857600080fd5b506104b56004803603602081101561049f57600080fd5b8101908080359060200190929190505050610f14565b60405180838152602001821515151581526020019250505060405180910390f35b3480156104e257600080fd5b5061050f600480360360208110156104f957600080fd5b81019080803590602001909291905050506112bb565b6040518082815260200191505060405180910390f35b34801561053157600080fd5b5061055e6004803603602081101561054857600080fd5b81019080803590602001909291905050506112c2565b6040518082815260200191505060405180910390f35b34801561058057600080fd5b506105896112da565b6040518080602001828103825283818151815260200191508051906020019080838360005b838110156105c95780820151818401526020810190506105ae565b50505050905090810190601f1680156105f65780820380516001836020036101000a031916815260200191505b509250505060405180910390f35b34801561061057600080fd5b5061063d6004803603602081101561062757600080fd5b81019080803590602001909291905050506112df565b604051808c815260200180602001806020018b815260200180602001806020018a73ffffffffffffffffffffffffffffffffffffffff1673ffffffffffffffffffffffffffffffffffffffff16815260200189151515158152602001888152602001871515151581526020018615151515815260200185810385528f818151815260200191508051906020019080838360005b838110156106eb5780820151818401526020810190506106d0565b50505050905090810190601f1680156107185780820380516001836020036101000a031916815260200191505b5085810384528e818151815260200191508051906020019080838360005b83811015610751578082015181840152602081019050610736565b50505050905090810190601f16801561077e5780820380516001836020036101000a031916815260200191505b5085810383528c818151815260200191508051906020019080838360005b838110156107b757808201518184015260208101905061079c565b50505050905090810190601f1680156107e45780820380516001836020036101000a031916815260200191505b5085810382528b818151815260200191508051906020019080838360005b8381101561081d578082015181840152602081019050610802565b50505050905090810190601f16801561084a5780820380516001836020036101000a031916815260200191505b509f5050505050505050505050505050505060405180910390f35b34801561087157600080fd5b5061089e6004803603602081101561088857600080fd5b81019080803590602001909291905050506115e0565b604051808c815260200180602001806020018b815260200180602001806020018a73ffffffffffffffffffffffffffffffffffffffff1673ffffffffffffffffffffffffffffffffffffffff16815260200189151515158152602001888152602001871515151581526020018615151515815260200185810385528f818151815260200191508051906020019080838360005b8381101561094c578082015181840152602081019050610931565b50505050905090810190601f1680156109795780820380516001836020036101000a031916815260200191505b5085810384528e818151815260200191508051906020019080838360005b838110156109b2578082015181840152602081019050610997565b50505050905090810190601f1680156109df5780820380516001836020036101000a031916815260200191505b5085810383528c818151815260200191508051906020019080838360005b83811015610a185780820151818401526020810190506109fd565b50505050905090810190601f168015610a455780820380516001836020036101000a031916815260200191505b5085810382528b818151815260200191508051906020019080838360005b83811015610a7e578082015181840152602081019050610a63565b50505050905090810190601f168015610aab5780820380516001836020036101000a031916815260200191505b509f5050505050505050505050505050505060405180910390f35b610af260048036036020811015610adc57600080fd5b81019080803590602001909291905050506119ed565b005b348015610b0057600080fd5b50610b096119f0565b6040518082606460200280838360005b83811015610b34578082015181840152602081019050610b19565b5050505090500191505060405180910390f35b6000919050565b60008215610d1a5760405180610160016040528060025481526020018981526020018881526020018781526020018681526020018581526020013373ffffffffffffffffffffffffffffffffffffffff1681526020018415158152602001838152602001600015158152602001600015158152506000806002548152602001908152602001600020600082015181600001556020820151816001019080519060200190610bfc9291906119fb565b506040820151816002019080519060200190610c199291906119fb565b50606082015181600301556080820151816004019080519060200190610c409291906119fb565b5060a0820151816005019080519060200190610c5d9291906119fb565b5060c08201518160060160006101000a81548173ffffffffffffffffffffffffffffffffffffffff021916908373ffffffffffffffffffffffffffffffffffffffff16021790555060e08201518160060160146101000a81548160ff02191690831515021790555061010082015181600701556101208201518160080160006101000a81548160ff0219169083151502179055506101408201518160080160016101000a81548160ff021916908315150217905550905050610edb565b60405180610160016040528060025481526020018981526020018881526020018781526020018681526020018581526020013373ffffffffffffffffffffffffffffffffffffffff168152602001841515815260200160008152602001600015158152602001600015158152506000806002548152602001908152602001600020600082015181600001556020820151816001019080519060200190610dc19291906119fb565b506040820151816002019080519060200190610dde9291906119fb565b50606082015181600301556080820151816004019080519060200190610e059291906119fb565b5060a0820151816005019080519060200190610e229291906119fb565b5060c08201518160060160006101000a81548173ffffffffffffffffffffffffffffffffffffffff021916908373ffffffffffffffffffffffffffffffffffffffff16021790555060e08201518160060160146101000a81548160ff02191690831515021790555061010082015181600701556101208201518160080160006101000a81548160ff0219169083151502179055506101408201518160080160016101000a81548160ff0219169083151502179055509050505b6002600081548092919060010191905055506002549050979650505050505050565b6000919050565b6000600254905090565b60025481565b60008060008310158015610f29575060025483105b610f3257600080fd5b610f3a611a7b565b6000808581526020019081526020016000206040518061016001604052908160008201548152602001600182018054600181600116156101000203166002900480601f016020809104026020016040519081016040528092919081815260200182805460018160011615610100020316600290048015610ffb5780601f10610fd057610100808354040283529160200191610ffb565b820191906000526020600020905b815481529060010190602001808311610fde57829003601f168201915b50505050508152602001600282018054600181600116156101000203166002900480601f01602080910402602001604051908101604052809291908181526020018280546001816001161561010002031660029004801561109d5780601f106110725761010080835404028352916020019161109d565b820191906000526020600020905b81548152906001019060200180831161108057829003601f168201915b5050505050815260200160038201548152602001600482018054600181600116156101000203166002900480601f0160208091040260200160405190810160405280929190818152602001828054600181600116156101000203166002900480156111495780601f1061111e57610100808354040283529160200191611149565b820191906000526020600020905b81548152906001019060200180831161112c57829003601f168201915b50505050508152602001600582018054600181600116156101000203166002900480601f0160208091040260200160405190810160405280929190818152602001828054600181600116156101000203166002900480156111eb5780601f106111c0576101008083540402835291602001916111eb565b820191906000526020600020905b8154815290600101906020018083116111ce57829003601f168201915b505050505081526020016006820160009054906101000a900473ffffffffffffffffffffffffffffffffffffffff1673ffffffffffffffffffffffffffffffffffffffff1673ffffffffffffffffffffffffffffffffffffffff1681526020016006820160149054906101000a900460ff16151515158152602001600782015481526020016008820160009054906101000a900460ff161515151581526020016008820160019054906101000a900460ff161515151581525050905080600001518160e001519250925050915091565b6000919050565b60016020528060005260406000206000915090505481565b606090565b6000602052806000526040600020600091509050806000015490806001018054600181600116156101000203166002900480601f0160208091040260200160405190810160405280929190818152602001828054600181600116156101000203166002900480156113915780601f1061136657610100808354040283529160200191611391565b820191906000526020600020905b81548152906001019060200180831161137457829003601f168201915b505050505090806002018054600181600116156101000203166002900480601f01602080910402602001604051908101604052809291908181526020018280546001816001161561010002031660029004801561142f5780601f106114045761010080835404028352916020019161142f565b820191906000526020600020905b81548152906001019060200180831161141257829003601f168201915b505050505090806003015490806004018054600181600116156101000203166002900480601f0160208091040260200160405190810160405280929190818152602001828054600181600116156101000203166002900480156114d35780601f106114a8576101008083540402835291602001916114d3565b820191906000526020600020905b8154815290600101906020018083116114b657829003601f168201915b505050505090806005018054600181600116156101000203166002900480601f0160208091040260200160405190810160405280929190818152602001828054600181600116156101000203166002900480156115715780601f1061154657610100808354040283529160200191611571565b820191906000526020600020905b81548152906001019060200180831161155457829003601f168201915b5050505050908060060160009054906101000a900473ffffffffffffffffffffffffffffffffffffffff16908060060160149054906101000a900460ff16908060070154908060080160009054906101000a900460ff16908060080160019054906101000a900460ff1690508b565b600060608060006060806000806000806000808c1015801561160357506002548c105b61160c57600080fd5b611614611a7b565b6000808e81526020019081526020016000206040518061016001604052908160008201548152602001600182018054600181600116156101000203166002900480601f0160208091040260200160405190810160405280929190818152602001828054600181600116156101000203166002900480156116d55780601f106116aa576101008083540402835291602001916116d5565b820191906000526020600020905b8154815290600101906020018083116116b857829003601f168201915b50505050508152602001600282018054600181600116156101000203166002900480601f0160208091040260200160405190810160405280929190818152602001828054600181600116156101000203166002900480156117775780601f1061174c57610100808354040283529160200191611777565b820191906000526020600020905b81548152906001019060200180831161175a57829003601f168201915b5050505050815260200160038201548152602001600482018054600181600116156101000203166002900480601f0160208091040260200160405190810160405280929190818152602001828054600181600116156101000203166002900480156118235780601f106117f857610100808354040283529160200191611823565b820191906000526020600020905b81548152906001019060200180831161180657829003601f168201915b50505050508152602001600582018054600181600116156101000203166002900480601f0160208091040260200160405190810160405280929190818152602001828054600181600116156101000203166002900480156118c55780601f1061189a576101008083540402835291602001916118c5565b820191906000526020600020905b8154815290600101906020018083116118a857829003601f168201915b505050505081526020016006820160009054906101000a900473ffffffffffffffffffffffffffffffffffffffff1673ffffffffffffffffffffffffffffffffffffffff1673ffffffffffffffffffffffffffffffffffffffff1681526020016006820160149054906101000a900460ff16151515158152602001600782015481526020016008820160009054906101000a900460ff161515151581526020016008820160019054906101000a900460ff1615151515815250509050806000015181602001518260400151836060015184608001518560a001518660c001518760e001518861010001518961012001518a61014001518999508898508696508595509b509b509b509b509b509b509b509b509b509b509b505091939597999b90929496989a50565b50565b6119f8611af1565b90565b828054600181600116156101000203166002900490600052602060002090601f016020900481019282601f10611a3c57805160ff1916838001178555611a6a565b82800160010185558215611a6a579182015b82811115611a69578251825591602001919060010190611a4e565b5b509050611a779190611b14565b5090565b604051806101600160405280600081526020016060815260200160608152602001600081526020016060815260200160608152602001600073ffffffffffffffffffffffffffffffffffffffff168152602001600015158152602001600081526020016000151581526020016000151581525090565b60405180610c800160405280606490602082028038833980820191505090505090565b611b3691905b80821115611b32576000816000905550600101611b1a565b5090565b9056fea265627a7a7231582008449101760ac54ae4c008458398830e73c0afcfd8d7cac0a66c5ef6ef9813cd64736f6c63430005110032307866333563393532634133343034323562633631344344323039443238383743334636636435664246",
  "source": "pragma solidity ^0.5.0;\r\n\r\n\r\ncontract Toy {\r\n    // struct of a pet's info, picture = url of picture\r\n    struct Pet{\r\n        uint id;\r\n        string name;\r\n        string picture; \r\n        uint age;\r\n        string breed;\r\n        string location;\r\n        address payable adopter;\r\n        bool isForSale;\r\n        uint price;\r\n        bool isPurchased;\r\n        bool isAdopted;\r\n    }\r\n\r\n\r\n    // mapping from petsNum to pets' info\r\n    mapping(uint => Pet) public pets;\r\n\r\n    mapping(uint => uint256) public adoptedTime;\r\n\r\n    // petsNum are positive Integer, representing number of pets\r\n    uint public petsNum;\r\n    // myAddr is our wallet address\r\n    string myAddr = \"0xf35c952cA340425bc614CD209D2887C3F6cd5fBF\";\r\n\r\n    constructor() public {\r\n        petsNum = 0;\r\n    }\r\n\r\n    // Adopting a pet\r\n    function adopt(uint petId) public returns (uint) {\r\n    }\r\n\r\n    // Buying a pet\r\n    function buy(uint petId) payable public{\r\n    }\r\n\r\n    function vote(uint petId) public returns (uint){\r\n    }\r\n\r\n    // Retrieving the voted Pet for the current user\r\n    function getVotedPets() public view returns (uint[100] memory) {\r\n    }\r\n\r\n    // Retrieving the voted Pet for the current user\r\n    function getliked(uint petId) public view returns (uint) {\r\n    }\r\n\r\n    // Adding a pet\r\n    function add(string memory name, string memory picture, uint age, string memory breed,\r\n        string memory location, bool isForSale, uint price) public returns (uint) {\r\n\r\n        if (isForSale){\r\n            pets[petsNum] = Pet(petsNum, name, picture, age, breed, location, msg.sender, isForSale, price, false, false);\r\n        }else{\r\n            pets[petsNum] = Pet(petsNum, name, picture, age, breed, location, msg.sender, isForSale, 0, false, false);\r\n        }\r\n\r\n        petsNum++;\r\n        return petsNum;\r\n    }\r\n\r\n    // Retrieving the numbers of pets\r\n    function getPetsNum() public view returns (uint) {\r\n        return petsNum;\r\n    }\r\n\r\n    // Retrieving the pet's details\r\n    function getPetDetails(uint petId) public view returns (uint, string memory, string memory, uint, string memory,\r\n        string memory, address payable, bool, uint, bool, bool) {\r\n        require(petId >= 0 && petId < petsNum);\r\n        Pet memory p = pets[petId];\r\n        return (p.id, p.name, p.picture, p.age, p.breed, p.location, p.adopter, p.isForSale, p.price, p.isPurchased, p.isAdopted);\r\n    }\r\n\r\n    // Retrieving whether the pet is for sale or for adoption\r\n    function isForSale(uint petId) public view returns (uint, bool) {\r\n        require(petId >= 0 && petId < petsNum);\r\n        Pet memory p = pets[petId];\r\n        return (p.id, p.isForSale);\r\n    }\r\n\r\n    // Retrieving myAddr Address\r\n    function getMyAddr() public view returns (string memory){\r\n    }\r\n\r\n}",
  "sourcePath": "/Users/jiayanglai/Documents/GitHub/APS_1050_Final_Project/contracts/Toy.sol",
  "compiler": {
    "name": "solc",
    "version": "0.5.17+commit.d19bba13.Emscripten.clang"
  },
  "schemaVersion": "3.4.10",
  "updatedAt": "2022-12-17T03:07:45.324Z",
  "networkType": "ethereum",
  "devdoc": {
    "methods": {}
  },
  "userdoc": {
    "methods": {}
  }
}